{
  "_format": "hh3-artifact-1",
  "contractName": "ArcanePact",
  "sourceName": "contracts/ArcanePact.sol",
  "abi": [
    {
      "inputs": [],
      "stateMutability": "nonpayable",
      "type": "constructor"
    },
    {
      "inputs": [
        {
          "internalType": "uint256",
          "name": "campaignId",
          "type": "uint256"
        },
        {
          "internalType": "address",
          "name": "receiver",
          "type": "address"
        },
        {
          "internalType": "address",
          "name": "caller",
          "type": "address"
        }
      ],
      "name": "AlreadyReviewed",
      "type": "error"
    },
    {
      "inputs": [
        {
          "internalType": "uint256",
          "name": "campaignId",
          "type": "uint256"
        },
        {
          "internalType": "address",
          "name": "applicant",
          "type": "address"
        }
      ],
      "name": "ApplicantAlreadyApproved",
      "type": "error"
    },
    {
      "inputs": [
        {
          "internalType": "uint256",
          "name": "campaignId",
          "type": "uint256"
        },
        {
          "internalType": "address",
          "name": "applicant",
          "type": "address"
        }
      ],
      "name": "ApplicantAlreadyRejected",
      "type": "error"
    },
    {
      "inputs": [
        {
          "internalType": "uint256",
          "name": "campaignId",
          "type": "uint256"
        },
        {
          "internalType": "address",
          "name": "applicant",
          "type": "address"
        }
      ],
      "name": "ApplicantDoesNotExist",
      "type": "error"
    },
    {
      "inputs": [
        {
          "internalType": "uint256",
          "name": "campaignId",
          "type": "uint256"
        },
        {
          "internalType": "address",
          "name": "caller",
          "type": "address"
        }
      ],
      "name": "BlockedDueToReEntrancy",
      "type": "error"
    },
    {
      "inputs": [
        {
          "internalType": "uint256",
          "name": "campaignId",
          "type": "uint256"
        }
      ],
      "name": "CampaignDoesNotExist",
      "type": "error"
    },
    {
      "inputs": [
        {
          "internalType": "uint256",
          "name": "campaignId",
          "type": "uint256"
        }
      ],
      "name": "CampaignIsInviteOnly",
      "type": "error"
    },
    {
      "inputs": [
        {
          "internalType": "uint256",
          "name": "campaignId",
          "type": "uint256"
        }
      ],
      "name": "CampaignLocked",
      "type": "error"
    },
    {
      "inputs": [
        {
          "internalType": "uint256",
          "name": "campaignId",
          "type": "uint256"
        }
      ],
      "name": "CampaignNotCompleted",
      "type": "error"
    },
    {
      "inputs": [],
      "name": "CannotReviewSelf",
      "type": "error"
    },
    {
      "inputs": [],
      "name": "FunctionNotFound",
      "type": "error"
    },
    {
      "inputs": [
        {
          "internalType": "uint256",
          "name": "campaignId",
          "type": "uint256"
        },
        {
          "internalType": "address",
          "name": "player",
          "type": "address"
        },
        {
          "internalType": "enum ArcanePact.VoteType",
          "name": "voteType",
          "type": "uint8"
        }
      ],
      "name": "HasAlreadyVoted",
      "type": "error"
    },
    {
      "inputs": [
        {
          "internalType": "uint256",
          "name": "campaignId",
          "type": "uint256"
        },
        {
          "internalType": "address",
          "name": "player",
          "type": "address"
        }
      ],
      "name": "HasNoLockedCollateral",
      "type": "error"
    },
    {
      "inputs": [
        {
          "internalType": "uint256",
          "name": "campaignId",
          "type": "uint256"
        }
      ],
      "name": "HasNoLockedFees",
      "type": "error"
    },
    {
      "inputs": [
        {
          "internalType": "uint256",
          "name": "gamemasterFee",
          "type": "uint256"
        },
        {
          "internalType": "uint256",
          "name": "collateral",
          "type": "uint256"
        },
        {
          "internalType": "uint256",
          "name": "received",
          "type": "uint256"
        }
      ],
      "name": "IncorrectTransactionValue",
      "type": "error"
    },
    {
      "inputs": [
        {
          "internalType": "address",
          "name": "caller",
          "type": "address"
        }
      ],
      "name": "NotOwner",
      "type": "error"
    },
    {
      "inputs": [],
      "name": "PaymentDataMissing",
      "type": "error"
    },
    {
      "inputs": [
        {
          "internalType": "uint256",
          "name": "campaignId",
          "type": "uint256"
        },
        {
          "internalType": "address",
          "name": "player",
          "type": "address"
        }
      ],
      "name": "PlayerExistsInCampaign",
      "type": "error"
    },
    {
      "inputs": [
        {
          "internalType": "uint256",
          "name": "campaignId",
          "type": "uint256"
        },
        {
          "internalType": "address",
          "name": "player",
          "type": "address"
        }
      ],
      "name": "PlayerHasNotSigned",
      "type": "error"
    },
    {
      "inputs": [
        {
          "internalType": "uint256",
          "name": "campaignId",
          "type": "uint256"
        },
        {
          "internalType": "address",
          "name": "player",
          "type": "address"
        }
      ],
      "name": "PlayerNotAwaitingSignature",
      "type": "error"
    },
    {
      "inputs": [
        {
          "internalType": "uint256",
          "name": "amount",
          "type": "uint256"
        },
        {
          "internalType": "address",
          "name": "recipient",
          "type": "address"
        }
      ],
      "name": "TransferFailed",
      "type": "error"
    },
    {
      "anonymous": false,
      "inputs": [
        {
          "indexed": true,
          "internalType": "uint256",
          "name": "campaignId",
          "type": "uint256"
        },
        {
          "indexed": true,
          "internalType": "address",
          "name": "owner",
          "type": "address"
        },
        {
          "indexed": true,
          "internalType": "enum ArcanePact.CampaignState",
          "name": "campaignState",
          "type": "uint8"
        },
        {
          "indexed": false,
          "internalType": "uint256",
          "name": "participantCount",
          "type": "uint256"
        },
        {
          "indexed": false,
          "internalType": "uint256",
          "name": "lockedFees",
          "type": "uint256"
        },
        {
          "components": [
            {
              "internalType": "string",
              "name": "title",
              "type": "string"
            },
            {
              "internalType": "string",
              "name": "description",
              "type": "string"
            },
            {
              "internalType": "bool",
              "name": "inviteOnly",
              "type": "bool"
            },
            {
              "internalType": "uint256",
              "name": "gamemasterFee",
              "type": "uint256"
            },
            {
              "internalType": "uint256",
              "name": "collateral",
              "type": "uint256"
            }
          ],
          "indexed": false,
          "internalType": "struct ArcanePact.NewCampaignConfig",
          "name": "config",
          "type": "tuple"
        }
      ],
      "name": "CampaignCreated",
      "type": "event"
    },
    {
      "anonymous": false,
      "inputs": [
        {
          "indexed": true,
          "internalType": "uint256",
          "name": "campaignId",
          "type": "uint256"
        },
        {
          "indexed": false,
          "internalType": "uint256",
          "name": "participantCount",
          "type": "uint256"
        }
      ],
      "name": "CampaignParticipantCountChanged",
      "type": "event"
    },
    {
      "anonymous": false,
      "inputs": [
        {
          "indexed": true,
          "internalType": "uint256",
          "name": "campaignId",
          "type": "uint256"
        },
        {
          "indexed": false,
          "internalType": "uint256",
          "name": "withdrawnAmount",
          "type": "uint256"
        },
        {
          "indexed": false,
          "internalType": "uint256",
          "name": "currentlyLockedAmount",
          "type": "uint256"
        }
      ],
      "name": "LockedCollateralWithdrawn",
      "type": "event"
    },
    {
      "anonymous": false,
      "inputs": [
        {
          "indexed": true,
          "internalType": "uint256",
          "name": "campaignId",
          "type": "uint256"
        },
        {
          "indexed": false,
          "internalType": "uint256",
          "name": "withdrawnAmount",
          "type": "uint256"
        },
        {
          "indexed": false,
          "internalType": "uint256",
          "name": "currentlyLockedAmount",
          "type": "uint256"
        }
      ],
      "name": "LockedFeesWithdrawn",
      "type": "event"
    },
    {
      "anonymous": false,
      "inputs": [
        {
          "indexed": true,
          "internalType": "uint256",
          "name": "campaignId",
          "type": "uint256"
        },
        {
          "indexed": false,
          "internalType": "enum ArcanePact.VoteType",
          "name": "voteType",
          "type": "uint8"
        },
        {
          "indexed": false,
          "internalType": "address",
          "name": "player",
          "type": "address"
        }
      ],
      "name": "NewVoteAdded",
      "type": "event"
    },
    {
      "anonymous": false,
      "inputs": [
        {
          "indexed": true,
          "internalType": "uint256",
          "name": "campaignId",
          "type": "uint256"
        },
        {
          "indexed": true,
          "internalType": "address",
          "name": "player",
          "type": "address"
        },
        {
          "indexed": false,
          "internalType": "uint256",
          "name": "collateral",
          "type": "uint256"
        }
      ],
      "name": "PlayerLockedCollateral",
      "type": "event"
    },
    {
      "anonymous": false,
      "inputs": [
        {
          "indexed": true,
          "internalType": "uint256",
          "name": "campaignId",
          "type": "uint256"
        },
        {
          "indexed": true,
          "internalType": "address",
          "name": "recipient",
          "type": "address"
        },
        {
          "indexed": true,
          "internalType": "address",
          "name": "sender",
          "type": "address"
        },
        {
          "components": [
            {
              "internalType": "enum ArcanePact.ReviewScore",
              "name": "score",
              "type": "uint8"
            },
            {
              "internalType": "string",
              "name": "comment",
              "type": "string"
            }
          ],
          "indexed": false,
          "internalType": "struct ArcanePact.Review",
          "name": "review",
          "type": "tuple"
        }
      ],
      "name": "ReviewAdded",
      "type": "event"
    },
    {
      "anonymous": false,
      "inputs": [
        {
          "indexed": true,
          "internalType": "uint256",
          "name": "campaignId",
          "type": "uint256"
        },
        {
          "indexed": true,
          "internalType": "address",
          "name": "player",
          "type": "address"
        },
        {
          "indexed": true,
          "internalType": "enum ArcanePact.PlayerState",
          "name": "playerState",
          "type": "uint8"
        }
      ],
      "name": "UpdatedCampaignPlayer",
      "type": "event"
    },
    {
      "anonymous": false,
      "inputs": [
        {
          "indexed": true,
          "internalType": "uint256",
          "name": "campaignId",
          "type": "uint256"
        },
        {
          "indexed": false,
          "internalType": "enum ArcanePact.CampaignState",
          "name": "campaignState",
          "type": "uint8"
        }
      ],
      "name": "UpdatedCampaignState",
      "type": "event"
    },
    {
      "anonymous": false,
      "inputs": [
        {
          "indexed": true,
          "internalType": "uint256",
          "name": "campaignId",
          "type": "uint256"
        },
        {
          "indexed": false,
          "internalType": "uint256",
          "name": "totalLockedFees",
          "type": "uint256"
        }
      ],
      "name": "UpdatedLockedFees",
      "type": "event"
    },
    {
      "stateMutability": "payable",
      "type": "fallback"
    },
    {
      "inputs": [
        {
          "internalType": "uint256",
          "name": "campaignId",
          "type": "uint256"
        },
        {
          "internalType": "address",
          "name": "recipient",
          "type": "address"
        },
        {
          "components": [
            {
              "internalType": "enum ArcanePact.ReviewScore",
              "name": "score",
              "type": "uint8"
            },
            {
              "internalType": "string",
              "name": "comment",
              "type": "string"
            }
          ],
          "internalType": "struct ArcanePact.Review",
          "name": "review",
          "type": "tuple"
        }
      ],
      "name": "addReview",
      "outputs": [],
      "stateMutability": "nonpayable",
      "type": "function"
    },
    {
      "inputs": [
        {
          "internalType": "uint256",
          "name": "campaignId",
          "type": "uint256"
        },
        {
          "internalType": "enum ArcanePact.VoteType",
          "name": "voteType",
          "type": "uint8"
        }
      ],
      "name": "addVote",
      "outputs": [],
      "stateMutability": "nonpayable",
      "type": "function"
    },
    {
      "inputs": [
        {
          "internalType": "uint256",
          "name": "campaignId",
          "type": "uint256"
        }
      ],
      "name": "campaignApplication",
      "outputs": [],
      "stateMutability": "nonpayable",
      "type": "function"
    },
    {
      "inputs": [
        {
          "internalType": "uint256",
          "name": "campaignId",
          "type": "uint256"
        },
        {
          "internalType": "address[]",
          "name": "addresses",
          "type": "address[]"
        }
      ],
      "name": "invitePlayers",
      "outputs": [],
      "stateMutability": "nonpayable",
      "type": "function"
    },
    {
      "inputs": [
        {
          "components": [
            {
              "internalType": "string",
              "name": "title",
              "type": "string"
            },
            {
              "internalType": "string",
              "name": "description",
              "type": "string"
            },
            {
              "internalType": "bool",
              "name": "inviteOnly",
              "type": "bool"
            },
            {
              "internalType": "uint256",
              "name": "gamemasterFee",
              "type": "uint256"
            },
            {
              "internalType": "uint256",
              "name": "collateral",
              "type": "uint256"
            }
          ],
          "internalType": "struct ArcanePact.NewCampaignConfig",
          "name": "config",
          "type": "tuple"
        }
      ],
      "name": "newCampaign",
      "outputs": [],
      "stateMutability": "nonpayable",
      "type": "function"
    },
    {
      "inputs": [
        {
          "internalType": "uint256",
          "name": "campaignId",
          "type": "uint256"
        },
        {
          "internalType": "address",
          "name": "applicant",
          "type": "address"
        },
        {
          "internalType": "enum ArcanePact.ApplicationDecision",
          "name": "decision",
          "type": "uint8"
        }
      ],
      "name": "reviewApplication",
      "outputs": [],
      "stateMutability": "nonpayable",
      "type": "function"
    },
    {
      "inputs": [
        {
          "internalType": "uint256",
          "name": "campaignId",
          "type": "uint256"
        }
      ],
      "name": "signCampaign",
      "outputs": [],
      "stateMutability": "payable",
      "type": "function"
    },
    {
      "inputs": [
        {
          "internalType": "uint256",
          "name": "campaignId",
          "type": "uint256"
        }
      ],
      "name": "withdrawCollateral",
      "outputs": [],
      "stateMutability": "nonpayable",
      "type": "function"
    },
    {
      "inputs": [
        {
          "internalType": "uint256",
          "name": "campaignId",
          "type": "uint256"
        }
      ],
      "name": "withdrawFees",
      "outputs": [],
      "stateMutability": "nonpayable",
      "type": "function"
    },
    {
      "stateMutability": "payable",
      "type": "receive"
    }
  ],
  "bytecode": "0x6080604052348015600e575f5ffd5b5060015f556115cb806100205f395ff3fe608060405260043610610089575f3560e01c80639c6a4a77116100585780639c6a4a771461013e578063bb826dc01461015d578063c02455fd1461017c578063cf5b0cf41461018f578063e3439109146101ae576100a7565b80631cd3b3bf146100c05780635e318e07146100e15780636112fe2e14610100578063724997e11461011f576100a7565b366100a75760405163f92b856960e01b815260040160405180910390fd5b60405163201f3fd360e11b815260040160405180910390fd5b3480156100cb575f5ffd5b506100df6100da36600461113f565b6101cd565b005b3480156100ec575f5ffd5b506100df6100fb36600461116d565b6104e2565b34801561010b575f5ffd5b506100df61011a36600461116d565b6105d2565b34801561012a575f5ffd5b506100df61013936600461119f565b6106e4565b348015610149575f5ffd5b506100df61015836600461116d565b610881565b348015610168575f5ffd5b506100df6101773660046111f8565b610938565b6100df61018a36600461116d565b610a2c565b34801561019a575f5ffd5b506100df6101a9366004611272565b610bef565b3480156101b9575f5ffd5b506100df6101c83660046112a4565b610ce0565b5f82815260026020526040902080546101ef906001600160a01b031684610ddb565b805461020590600160a01b900460ff1684610e09565b80546001600160a01b03163314610244575f838152600360209081526040808320338085529252909120805490916102429160ff16908690610e3d565b505b5f83815260056020526040812090836001811115610264576102646112e2565b6001811115610275576102756112e2565b815260208082019290925260409081015f90812033825290925290205460ff16156102c2578233836040516360db150b60e01b81526004016102b993929190611306565b60405180910390fd5b5f83815260046020526040812060019184838111156102e3576102e36112e2565b60018111156102f4576102f46112e2565b81526020019081526020015f205f82825461030f9190611347565b90915550505f8381526005602052604081206001918483811115610335576103356112e2565b6001811115610346576103466112e2565b815260208082019290925260409081015f908120338083529352819020805460ff191693151593909317909255905184917fcf452a9f0f05bb3105f5c5dc67aa62aeafbc73300f178b6f230ab8b4a4f989c4916103a4918691611360565b60405180910390a2600281600401546103bd9190611385565b5f848152600460205260408120908460018111156103dd576103dd6112e2565b60018111156103ee576103ee6112e2565b81526020019081526020015f205411156104dd575f826001811115610415576104156112e2565b0361046e57805460ff60a01b1916600160a01b90811780835560405185927f5cb848e6a8f9eff9734180d616affe6a6772e1d5aafbaff371b9c62a25a07141926104659291900460ff16906113a4565b60405180910390a25b6001826001811115610482576104826112e2565b036104dd57805460ff60a01b1916600160a11b1780825560405184917f5cb848e6a8f9eff9734180d616affe6a6772e1d5aafbaff371b9c62a25a07141916104d491600160a01b900460ff16906113a4565b60405180910390a25b505050565b5f8181526002602052604090208054610504906001600160a01b031683610ddb565b8054610519906001600160a01b031633610e81565b805461052f90600160a01b900460ff1683610ebe565b61053d816003015483610ef3565b60015460ff161561056a576040516311f726fd60e31b8152600481018390523360248201526044016102b9565b6001805460ff1916811790556003810180545f90915561058a8133610f16565b6001805460ff19169055600382015460405184917ff6996a9eea60b9a8dd652a4a4ee4de49106867c952f00708a1b3754632dbe152916104d491858252602082015260400190565b5f81815260026020526040902080546105f4906001600160a01b031683610ddb565b805461060a90600160a01b900460ff1683610ebe565b5f828152600360209081526040808320338085529252909120805490916106369160ff16908590610e3d565b61064581600101548433610f98565b60015460ff1615610672576040516311f726fd60e31b8152600481018490523360248201526044016102b9565b6001805460ff191681178155810180545f9091556106908133610f16565b6001805460ff1916815582015460405185917fab9d5c4d6af84f126c6c71379dbc8c183f0ce5b14ebe8ac63714453758ee4cd9916106d691858252602082015260400190565b60405180910390a250505050565b336001600160a01b0383160361070d576040516385ea03d760e01b815260040160405180910390fd5b5f838152600260205260409020805461072f906001600160a01b031685610ddb565b805461074590600160a01b900460ff1685610ebe565b80546001600160a01b03163314610784575f848152600360209081526040808320338085529252909120805490916107829160ff16908790610e3d565b505b80546001600160a01b038481169116146107cb575f8481526003602090815260408083206001600160a01b0387168452909152902080546107c99060ff168633610e3d565b505b5f848152600660209081526040808320338085529083528184206001600160a01b03881685529092529091205461080b9160ff9091169086908690610fca565b5f848152600660209081526040808320338085529083528184206001600160a01b038816808652935292819020805460ff191660011790555186907f688588d332fce1279477dc91df9bcc5c220b498e5324e91434f28a38d252c3c89061087390879061142f565b60405180910390a450505050565b5f81815260026020526040902080543391906108a6906001600160a01b031684610ddb565b80546108bc90600160a81b900460ff1684611009565b80546108d290600160a01b900460ff1684610e09565b5f8381526003602090815260408083206001600160a01b0386168452909152902080546109039060ff16858561102b565b805460ff1916600190811782556040516001600160a01b0385169086905f5160206115765f395f51905f52905f90a450505050565b5f838152600260205260409020805461095a906001600160a01b031685610ddb565b805461096f906001600160a01b031633610e81565b805461098590600160a01b900460ff1685610e09565b5f5b82811015610a25575f8484838181106109a2576109a2611479565b90506020020160208101906109b7919061148d565b5f8781526003602090815260408083206001600160a01b038516845290915290208054919250906109ec9060ff16888461102b565b805460ff1916600390811782556040516001600160a01b0384169089905f5160206115765f395f51905f52905f90a45050600101610987565b5050505050565b5f8181526002602052604090208054610a4e906001600160a01b031683610ddb565b8054610a6490600160a01b900460ff1683610e09565b5f82815260036020908152604080832033808552925290912080549091610a909160ff1690859061106e565b60018201546002830154610aa58183346110b2565b8360020154846003015f828254610abc9190611347565b925050819055508360010154836001015f828254610ada9190611347565b9091555050825460ff19166004908117845584018054600191905f90610b01908490611347565b9091555050825460ff166004811115610b1c57610b1c6112e2565b604051339087905f5160206115765f395f51905f52905f90a4847f268c2c2efdf68cf9400fa52c4864f3d3370b19f7d74d85639a9d4c547db7d9c58560040154604051610b6b91815260200190565b60405180910390a2604051828152339086907f0d69312f040d54468a20c0ee4877586a22bb3e16bd689d1fa93aa75bff949a7b9060200160405180910390a3847f82973ae3cca2df4a59c17705bb9c7a89786c60a75ad7e97ae57b0d373655988d8560030154604051610be091815260200190565b60405180910390a25050505050565b5f8381526002602052604090208054610c11906001600160a01b031685610ddb565b8054610c26906001600160a01b031633610e81565b8054610c3c90600160a01b900460ff1685610e09565b5f8481526003602090815260408083206001600160a01b038716845290915290208054610c6d9060ff1686866110ec565b5f836001811115610c8057610c806112e2565b03610c9557805460ff19166003178155610ca1565b805460ff191660021781555b805460ff166004811115610cb757610cb76112e2565b6040516001600160a01b0386169087905f5160206115765f395f51905f52905f90a45050505050565b5f80548180610cee836114a6565b909155505f818152600260205260409081902080546001600160a81b0319163360ff60a01b1916178155919250610d2b90606085019085016114cd565b8154901515600160a81b0260ff60a81b1990911617808255608084013560018084019190915560608501356002808501919091555f60038501556004840191909155600160a01b90910460ff1690811115610d8857610d886112e2565b336001600160a01b0316837f3026581ff26909458d3a1807371308fc6cc1f40d645b517a3ee389f4eca7f7988460040154856003015488604051610dce939291906114e6565b60405180910390a4505050565b6001600160a01b038216610e055760405163f49d9d7560e01b8152600481018290526024016102b9565b5050565b5f826002811115610e1c57610e1c6112e2565b14610e055760405163221daa7360e01b8152600481018290526024016102b9565b6004836004811115610e5157610e516112e2565b146104dd57604051630c2ea6ef60e31b8152600481018390526001600160a01b03821660248201526044016102b9565b806001600160a01b0316826001600160a01b031614610e055760405163245aecd360e01b81526001600160a01b03821660048201526024016102b9565b6002826002811115610ed257610ed26112e2565b14610e05576040516375ed72c760e11b8152600481018290526024016102b9565b5f8211610e05576040516307c5ff4360e41b8152600481018290526024016102b9565b5f816001600160a01b0316836040515f6040518083038185875af1925050503d805f8114610f5f576040519150601f19603f3d011682016040523d82523d5f602084013e610f64565b606091505b50509050806104dd5760405163f68179b160e01b8152600481018490526001600160a01b03831660248201526044016102b9565b5f83116104dd57604051630985097160e11b8152600481018390526001600160a01b03821660248201526044016102b9565b8315611003576040516314e8253560e11b8152600481018490526001600160a01b038084166024830152821660448201526064016102b9565b50505050565b8115610e055760405163013b040960e51b8152600481018290526024016102b9565b5f83600481111561103e5761103e6112e2565b146104dd5760405163d2abc08d60e01b8152600481018390526001600160a01b03821660248201526044016102b9565b6003836004811115611082576110826112e2565b146104dd57604051630fd0454d60e21b8152600481018390526001600160a01b03821660248201526044016102b9565b6110bc8284611347565b81146104dd57604051633117beb960e11b81526004810184905260248101839052604481018290526064016102b9565b6001836004811115611100576111006112e2565b146104dd576040516305f16b2160e51b8152600481018390526001600160a01b03821660248201526044016102b9565b6002811061113c575f5ffd5b50565b5f5f60408385031215611150575f5ffd5b82359150602083013561116281611130565b809150509250929050565b5f6020828403121561117d575f5ffd5b5035919050565b80356001600160a01b038116811461119a575f5ffd5b919050565b5f5f5f606084860312156111b1575f5ffd5b833592506111c160208501611184565b9150604084013567ffffffffffffffff8111156111dc575f5ffd5b8401604081870312156111ed575f5ffd5b809150509250925092565b5f5f5f6040848603121561120a575f5ffd5b83359250602084013567ffffffffffffffff811115611227575f5ffd5b8401601f81018613611237575f5ffd5b803567ffffffffffffffff81111561124d575f5ffd5b8660208260051b8401011115611261575f5ffd5b939660209190910195509293505050565b5f5f5f60608486031215611284575f5ffd5b8335925061129460208501611184565b915060408401356111ed81611130565b5f602082840312156112b4575f5ffd5b813567ffffffffffffffff8111156112ca575f5ffd5b820160a081850312156112db575f5ffd5b9392505050565b634e487b7160e01b5f52602160045260245ffd5b6002811061113c5761113c6112e2565b8381526001600160a01b038316602082015260608101611325836112f6565b826040830152949350505050565b634e487b7160e01b5f52601160045260245ffd5b8082018082111561135a5761135a611333565b92915050565b6040810161136d846112f6565b9281526001600160a01b039190911660209091015290565b5f8261139f57634e487b7160e01b5f52601260045260245ffd5b500490565b60208101600383106113b8576113b86112e2565b91905290565b5f5f8335601e198436030181126113d3575f5ffd5b830160208101925035905067ffffffffffffffff8111156113f2575f5ffd5b803603821315611400575f5ffd5b9250929050565b81835281816020850137505f828201602090810191909152601f909101601f19169091010190565b602081525f823561143f81611130565b611448816112f6565b8060208401525061145c60208401846113be565b604080850152611470606085018284611407565b95945050505050565b634e487b7160e01b5f52603260045260245ffd5b5f6020828403121561149d575f5ffd5b6112db82611184565b5f600182016114b7576114b7611333565b5060010190565b8035801515811461119a575f5ffd5b5f602082840312156114dd575f5ffd5b6112db826114be565b838152826020820152606060408201525f61150183846113be565b60a0606085015261151761010085018284611407565b91505061152760208501856113be565b848303605f1901608086015261153e838284611407565b9250505061154e604085016114be565b151560a0840152606084013560c084015260809093013560e090920191909152509291505056fe9229bc176416b3efdba6c30b2588f1a1b97de8db980ca349e7e0060fc7c70e06a2646970667358221220bcf7be2d41329b82a5d014f80e88e6b78a1844ee43ed8700566b7ea0915a72e064736f6c634300081c0033",
  "linkReferences": {},
  "deployedLinkReferences": {},
  "immutableReferences": {},
  "inputSourceName": "project/contracts/ArcanePact.sol",
  "buildInfoId": "solc-0_8_28-2b68599a836bc561f3570ad3daa1c3e153bd56eb"
}