{
  "_format": "hh3-artifact-1",
  "contractName": "ArcanePact",
  "sourceName": "contracts/ArcanePact.sol",
  "abi": [
    {
      "inputs": [],
      "stateMutability": "nonpayable",
      "type": "constructor"
    },
    {
      "inputs": [
        {
          "internalType": "uint256",
          "name": "campaignId",
          "type": "uint256"
        },
        {
          "internalType": "address",
          "name": "applicant",
          "type": "address"
        }
      ],
      "name": "ApplicantAlreadyApproved",
      "type": "error"
    },
    {
      "inputs": [
        {
          "internalType": "uint256",
          "name": "campaignId",
          "type": "uint256"
        },
        {
          "internalType": "address",
          "name": "applicant",
          "type": "address"
        }
      ],
      "name": "ApplicantAlreadyRejected",
      "type": "error"
    },
    {
      "inputs": [
        {
          "internalType": "uint256",
          "name": "campaignId",
          "type": "uint256"
        },
        {
          "internalType": "address",
          "name": "applicant",
          "type": "address"
        }
      ],
      "name": "ApplicantDoesNotExist",
      "type": "error"
    },
    {
      "inputs": [
        {
          "internalType": "uint256",
          "name": "campaignId",
          "type": "uint256"
        }
      ],
      "name": "CampaignDoesNotExist",
      "type": "error"
    },
    {
      "inputs": [
        {
          "internalType": "uint256",
          "name": "campaignId",
          "type": "uint256"
        }
      ],
      "name": "CampaignIsInviteOnly",
      "type": "error"
    },
    {
      "inputs": [
        {
          "internalType": "uint256",
          "name": "campaignId",
          "type": "uint256"
        }
      ],
      "name": "CampaignLocked",
      "type": "error"
    },
    {
      "inputs": [
        {
          "internalType": "address",
          "name": "caller",
          "type": "address"
        }
      ],
      "name": "NotOwner",
      "type": "error"
    },
    {
      "inputs": [
        {
          "internalType": "uint256",
          "name": "campaignId",
          "type": "uint256"
        },
        {
          "internalType": "address",
          "name": "player",
          "type": "address"
        }
      ],
      "name": "PlayerExistsInCampaign",
      "type": "error"
    },
    {
      "anonymous": false,
      "inputs": [
        {
          "indexed": true,
          "internalType": "uint256",
          "name": "campaignId",
          "type": "uint256"
        },
        {
          "indexed": true,
          "internalType": "address",
          "name": "player",
          "type": "address"
        }
      ],
      "name": "ApplicationAdded",
      "type": "event"
    },
    {
      "anonymous": false,
      "inputs": [
        {
          "indexed": true,
          "internalType": "uint256",
          "name": "campaignId",
          "type": "uint256"
        },
        {
          "indexed": true,
          "internalType": "address",
          "name": "player",
          "type": "address"
        }
      ],
      "name": "ApplicationAproved",
      "type": "event"
    },
    {
      "anonymous": false,
      "inputs": [
        {
          "indexed": true,
          "internalType": "uint256",
          "name": "campaignId",
          "type": "uint256"
        },
        {
          "indexed": true,
          "internalType": "address",
          "name": "player",
          "type": "address"
        }
      ],
      "name": "ApplicationRejected",
      "type": "event"
    },
    {
      "anonymous": false,
      "inputs": [
        {
          "indexed": true,
          "internalType": "uint256",
          "name": "campaignId",
          "type": "uint256"
        },
        {
          "indexed": true,
          "internalType": "address",
          "name": "owner",
          "type": "address"
        },
        {
          "components": [
            {
              "internalType": "string",
              "name": "title",
              "type": "string"
            },
            {
              "internalType": "string",
              "name": "description",
              "type": "string"
            },
            {
              "internalType": "bool",
              "name": "inviteOnly",
              "type": "bool"
            },
            {
              "internalType": "uint256",
              "name": "gamemasterFee",
              "type": "uint256"
            },
            {
              "internalType": "uint256",
              "name": "collateral",
              "type": "uint256"
            }
          ],
          "indexed": false,
          "internalType": "struct ArcanePact.NewCampaignConfig",
          "name": "config",
          "type": "tuple"
        }
      ],
      "name": "CampaignCreated",
      "type": "event"
    },
    {
      "anonymous": false,
      "inputs": [
        {
          "indexed": true,
          "internalType": "uint256",
          "name": "campaignId",
          "type": "uint256"
        },
        {
          "indexed": false,
          "internalType": "address",
          "name": "player",
          "type": "address"
        }
      ],
      "name": "InvitationAdded",
      "type": "event"
    },
    {
      "inputs": [
        {
          "internalType": "uint256",
          "name": "campaignId",
          "type": "uint256"
        },
        {
          "components": [
            {
              "internalType": "address",
              "name": "applicant",
              "type": "address"
            },
            {
              "internalType": "enum ArcanePact.ApplicationDecision",
              "name": "decision",
              "type": "uint8"
            }
          ],
          "internalType": "struct ArcanePact.ApplicationReview[]",
          "name": "reviews",
          "type": "tuple[]"
        }
      ],
      "name": "ReviewApplications",
      "outputs": [],
      "stateMutability": "nonpayable",
      "type": "function"
    },
    {
      "inputs": [
        {
          "internalType": "uint256",
          "name": "campaignId",
          "type": "uint256"
        }
      ],
      "name": "campaignApplication",
      "outputs": [],
      "stateMutability": "nonpayable",
      "type": "function"
    },
    {
      "inputs": [
        {
          "internalType": "uint256",
          "name": "campaignId",
          "type": "uint256"
        },
        {
          "internalType": "address[]",
          "name": "addresses",
          "type": "address[]"
        }
      ],
      "name": "invitePlayers",
      "outputs": [],
      "stateMutability": "nonpayable",
      "type": "function"
    },
    {
      "inputs": [
        {
          "components": [
            {
              "internalType": "string",
              "name": "title",
              "type": "string"
            },
            {
              "internalType": "string",
              "name": "description",
              "type": "string"
            },
            {
              "internalType": "bool",
              "name": "inviteOnly",
              "type": "bool"
            },
            {
              "internalType": "uint256",
              "name": "gamemasterFee",
              "type": "uint256"
            },
            {
              "internalType": "uint256",
              "name": "collateral",
              "type": "uint256"
            }
          ],
          "internalType": "struct ArcanePact.NewCampaignConfig",
          "name": "config",
          "type": "tuple"
        }
      ],
      "name": "newCampaign",
      "outputs": [],
      "stateMutability": "nonpayable",
      "type": "function"
    }
  ],
  "bytecode": "0x6080604052348015600e575f5ffd5b5060015f556109b8806100205f395ff3fe608060405234801561000f575f5ffd5b506004361061004a575f3560e01c806318dc07be1461004e5780639c6a4a7714610063578063bb826dc014610076578063e343910914610089575b5f5ffd5b61006161005c366004610699565b61009c565b005b610061610071366004610713565b61024e565b61006161008436600461072a565b610316565b610061610097366004610793565b61041d565b5f83815260016020526040902080546100be906001600160a01b0316856104c0565b80546100d3906001600160a01b0316336104f3565b80546100e990600160a01b900460ff1685610530565b5f5b82811015610247575f848483818110610106576101066107d1565b905060400201602001602081019061011e91906107e5565b90505f858584818110610133576101336107d1565b6101499260206040909202019081019150610803565b5f8881526002602090815260408083206001600160a01b0385168452909152902080549192509061017e9060ff168984610564565b5f83600181111561019157610191610829565b036101eb5780546101a69060ff1689846105ac565b805460ff191660031781556040516001600160a01b0383169089907fdcc562865db2e6a2845423f33f2e101052b529f5b36366aa1aca0094a0b2d375905f90a361023c565b80546101fb9060ff1689846105f0565b805460ff191660021781556040516001600160a01b0383169089907fd88c67b75067601e318509cc4cd19649c6e5b2af3396e2152bd8faf039f624a1905f90a35b5050506001016100eb565b5050505050565b5f8181526001602052604090208054339190610273906001600160a01b0316846104c0565b805461028990600160a81b900460ff1684610634565b805461029f90600160a01b900460ff1684610530565b5f8381526002602090815260408083206001600160a01b0386168452909152902080546102d09060ff168585610656565b805460ff191660011781556040516001600160a01b0384169085907f3fc4faba4d01b1b16b94043aaa5ea0b7132c81637b7e635dfb985220c2343b4e905f90a350505050565b5f8381526001602052604090208054610338906001600160a01b0316856104c0565b805461034d906001600160a01b0316336104f3565b805461036390600160a01b900460ff1685610530565b5f5b82811015610247575f848483818110610380576103806107d1565b90506020020160208101906103959190610803565b5f8781526002602090815260408083206001600160a01b038516845290915290208054919250906103ca9060ff168884610656565b805460ff191660031781556040516001600160a01b038316815287907f5de06515305d9205e67ac3d7ddfff0a52ad9394daedfbcbec9ef925d084857fd9060200160405180910390a25050600101610365565b5f8054818061042b8361083d565b909155505f818152600160205260409081902080546001600160a81b0319163360ff60a01b19161781559192506104689060608501908501610875565b8154901515600160a81b0260ff60a81b19909116178155604051339083907fb778dcfca8d0d5d1e6596a5684942ea0bd4a33a754aa3853fd108383f230bce9906104b39087906108ff565b60405180910390a3505050565b6001600160a01b0382166104ef5760405163f49d9d7560e01b8152600481018290526024015b60405180910390fd5b5050565b806001600160a01b0316826001600160a01b0316146104ef5760405163245aecd360e01b81526001600160a01b03821660048201526024016104e6565b5f82600281111561054357610543610829565b146104ef5760405163221daa7360e01b8152600481018290526024016104e6565b5f83600581111561057757610577610829565b036105a7576040516305f16b2160e51b8152600481018390526001600160a01b03821660248201526044016104e6565b505050565b60038360058111156105c0576105c0610829565b036105a757604051634e9f3e4360e01b8152600481018390526001600160a01b03821660248201526044016104e6565b600283600581111561060457610604610829565b036105a75760405163067ab35960e11b8152600481018390526001600160a01b03821660248201526044016104e6565b81156104ef5760405163013b040960e51b8152600481018290526024016104e6565b5f83600581111561066957610669610829565b146105a75760405163d2abc08d60e01b8152600481018390526001600160a01b03821660248201526044016104e6565b5f5f5f604084860312156106ab575f5ffd5b83359250602084013567ffffffffffffffff8111156106c8575f5ffd5b8401601f810186136106d8575f5ffd5b803567ffffffffffffffff8111156106ee575f5ffd5b8660208260061b8401011115610702575f5ffd5b939660209190910195509293505050565b5f60208284031215610723575f5ffd5b5035919050565b5f5f5f6040848603121561073c575f5ffd5b83359250602084013567ffffffffffffffff811115610759575f5ffd5b8401601f81018613610769575f5ffd5b803567ffffffffffffffff81111561077f575f5ffd5b8660208260051b8401011115610702575f5ffd5b5f602082840312156107a3575f5ffd5b813567ffffffffffffffff8111156107b9575f5ffd5b820160a081850312156107ca575f5ffd5b9392505050565b634e487b7160e01b5f52603260045260245ffd5b5f602082840312156107f5575f5ffd5b8135600281106107ca575f5ffd5b5f60208284031215610813575f5ffd5b81356001600160a01b03811681146107ca575f5ffd5b634e487b7160e01b5f52602160045260245ffd5b5f6001820161085a57634e487b7160e01b5f52601160045260245ffd5b5060010190565b80358015158114610870575f5ffd5b919050565b5f60208284031215610885575f5ffd5b6107ca82610861565b5f5f8335601e198436030181126108a3575f5ffd5b830160208101925035905067ffffffffffffffff8111156108c2575f5ffd5b8036038213156108d0575f5ffd5b9250929050565b81835281816020850137505f828201602090810191909152601f909101601f19169091010190565b602081525f61090e838461088e565b60a0602085015261092360c0850182846108d7565b915050610933602085018561088e565b848303601f1901604086015261094a8382846108d7565b9250505061095a60408501610861565b15156060848101919091528401356080808501919091529093013560a090920191909152509056fea2646970667358221220b85d770e01d6e03eeb695a7f7a1742601e2aaeb0a204d9978236854245e3fd3364736f6c634300081c0033",
  "linkReferences": {},
  "deployedLinkReferences": {},
  "immutableReferences": {},
  "inputSourceName": "project/contracts/ArcanePact.sol",
  "buildInfoId": "solc-0_8_28-53529d5724e550fd4c50a2216b12664b976be24c"
}