{
  "_format": "hh3-artifact-1",
  "contractName": "ArcanePact",
  "sourceName": "contracts/ArcanePact.sol",
  "abi": [
    {
      "inputs": [],
      "stateMutability": "nonpayable",
      "type": "constructor"
    },
    {
      "inputs": [
        {
          "internalType": "uint256",
          "name": "campaignId",
          "type": "uint256"
        },
        {
          "internalType": "address",
          "name": "receiver",
          "type": "address"
        },
        {
          "internalType": "address",
          "name": "caller",
          "type": "address"
        }
      ],
      "name": "AlreadyReviewed",
      "type": "error"
    },
    {
      "inputs": [
        {
          "internalType": "uint256",
          "name": "campaignId",
          "type": "uint256"
        },
        {
          "internalType": "address",
          "name": "applicant",
          "type": "address"
        }
      ],
      "name": "ApplicantAlreadyApproved",
      "type": "error"
    },
    {
      "inputs": [
        {
          "internalType": "uint256",
          "name": "campaignId",
          "type": "uint256"
        },
        {
          "internalType": "address",
          "name": "applicant",
          "type": "address"
        }
      ],
      "name": "ApplicantAlreadyRejected",
      "type": "error"
    },
    {
      "inputs": [
        {
          "internalType": "uint256",
          "name": "campaignId",
          "type": "uint256"
        },
        {
          "internalType": "address",
          "name": "applicant",
          "type": "address"
        }
      ],
      "name": "ApplicantDoesNotExist",
      "type": "error"
    },
    {
      "inputs": [
        {
          "internalType": "uint256",
          "name": "campaignId",
          "type": "uint256"
        },
        {
          "internalType": "address",
          "name": "caller",
          "type": "address"
        }
      ],
      "name": "BlockedDueToReEntrancy",
      "type": "error"
    },
    {
      "inputs": [
        {
          "internalType": "uint256",
          "name": "campaignId",
          "type": "uint256"
        }
      ],
      "name": "CampaignDoesNotExist",
      "type": "error"
    },
    {
      "inputs": [
        {
          "internalType": "uint256",
          "name": "campaignId",
          "type": "uint256"
        }
      ],
      "name": "CampaignIsInviteOnly",
      "type": "error"
    },
    {
      "inputs": [
        {
          "internalType": "uint256",
          "name": "campaignId",
          "type": "uint256"
        }
      ],
      "name": "CampaignLocked",
      "type": "error"
    },
    {
      "inputs": [
        {
          "internalType": "uint256",
          "name": "campaignId",
          "type": "uint256"
        }
      ],
      "name": "CampaignNotCompleted",
      "type": "error"
    },
    {
      "inputs": [],
      "name": "CannotReviewSelf",
      "type": "error"
    },
    {
      "inputs": [],
      "name": "FunctionNotFound",
      "type": "error"
    },
    {
      "inputs": [
        {
          "internalType": "uint256",
          "name": "campaignId",
          "type": "uint256"
        },
        {
          "internalType": "address",
          "name": "player",
          "type": "address"
        },
        {
          "internalType": "enum ArcanePact.VoteType",
          "name": "voteType",
          "type": "uint8"
        }
      ],
      "name": "HasAlreadyVoted",
      "type": "error"
    },
    {
      "inputs": [
        {
          "internalType": "uint256",
          "name": "campaignId",
          "type": "uint256"
        },
        {
          "internalType": "address",
          "name": "player",
          "type": "address"
        }
      ],
      "name": "HasNoLockedCollateral",
      "type": "error"
    },
    {
      "inputs": [
        {
          "internalType": "uint256",
          "name": "campaignId",
          "type": "uint256"
        }
      ],
      "name": "HasNoLockedFees",
      "type": "error"
    },
    {
      "inputs": [
        {
          "internalType": "uint256",
          "name": "gamemasterFee",
          "type": "uint256"
        },
        {
          "internalType": "uint256",
          "name": "collateral",
          "type": "uint256"
        },
        {
          "internalType": "uint256",
          "name": "received",
          "type": "uint256"
        }
      ],
      "name": "IncorrectTransactionValue",
      "type": "error"
    },
    {
      "inputs": [
        {
          "internalType": "address",
          "name": "caller",
          "type": "address"
        }
      ],
      "name": "NotOwner",
      "type": "error"
    },
    {
      "inputs": [],
      "name": "PaymentDataMissing",
      "type": "error"
    },
    {
      "inputs": [
        {
          "internalType": "uint256",
          "name": "campaignId",
          "type": "uint256"
        },
        {
          "internalType": "address",
          "name": "player",
          "type": "address"
        }
      ],
      "name": "PlayerExistsInCampaign",
      "type": "error"
    },
    {
      "inputs": [
        {
          "internalType": "uint256",
          "name": "campaignId",
          "type": "uint256"
        },
        {
          "internalType": "address",
          "name": "player",
          "type": "address"
        }
      ],
      "name": "PlayerHasNotSigned",
      "type": "error"
    },
    {
      "inputs": [
        {
          "internalType": "uint256",
          "name": "campaignId",
          "type": "uint256"
        },
        {
          "internalType": "address",
          "name": "player",
          "type": "address"
        }
      ],
      "name": "PlayerNotAwaitingSignature",
      "type": "error"
    },
    {
      "inputs": [
        {
          "internalType": "uint256",
          "name": "amount",
          "type": "uint256"
        },
        {
          "internalType": "address",
          "name": "recipient",
          "type": "address"
        }
      ],
      "name": "TransferFailed",
      "type": "error"
    },
    {
      "anonymous": false,
      "inputs": [
        {
          "indexed": true,
          "internalType": "uint256",
          "name": "campaignId",
          "type": "uint256"
        },
        {
          "indexed": true,
          "internalType": "address",
          "name": "owner",
          "type": "address"
        },
        {
          "indexed": true,
          "internalType": "enum ArcanePact.CampaignState",
          "name": "campaignState",
          "type": "uint8"
        },
        {
          "indexed": false,
          "internalType": "uint256",
          "name": "participantCount",
          "type": "uint256"
        },
        {
          "indexed": false,
          "internalType": "uint256",
          "name": "lockedFees",
          "type": "uint256"
        },
        {
          "components": [
            {
              "internalType": "string",
              "name": "title",
              "type": "string"
            },
            {
              "internalType": "string",
              "name": "description",
              "type": "string"
            },
            {
              "internalType": "bool",
              "name": "inviteOnly",
              "type": "bool"
            },
            {
              "internalType": "uint256",
              "name": "gamemasterFee",
              "type": "uint256"
            },
            {
              "internalType": "uint256",
              "name": "collateral",
              "type": "uint256"
            }
          ],
          "indexed": false,
          "internalType": "struct ArcanePact.NewCampaignConfig",
          "name": "config",
          "type": "tuple"
        }
      ],
      "name": "CampaignCreated",
      "type": "event"
    },
    {
      "anonymous": false,
      "inputs": [
        {
          "indexed": true,
          "internalType": "uint256",
          "name": "campaignId",
          "type": "uint256"
        },
        {
          "indexed": false,
          "internalType": "uint256",
          "name": "participantCount",
          "type": "uint256"
        }
      ],
      "name": "CampaignParticipantCountChanged",
      "type": "event"
    },
    {
      "anonymous": false,
      "inputs": [
        {
          "indexed": false,
          "internalType": "string",
          "name": "name",
          "type": "string"
        },
        {
          "indexed": true,
          "internalType": "address",
          "name": "player",
          "type": "address"
        }
      ],
      "name": "ChangedName",
      "type": "event"
    },
    {
      "anonymous": false,
      "inputs": [
        {
          "indexed": true,
          "internalType": "uint256",
          "name": "campaignId",
          "type": "uint256"
        },
        {
          "indexed": false,
          "internalType": "uint256",
          "name": "withdrawnAmount",
          "type": "uint256"
        },
        {
          "indexed": false,
          "internalType": "uint256",
          "name": "currentlyLockedAmount",
          "type": "uint256"
        }
      ],
      "name": "LockedCollateralWithdrawn",
      "type": "event"
    },
    {
      "anonymous": false,
      "inputs": [
        {
          "indexed": true,
          "internalType": "uint256",
          "name": "campaignId",
          "type": "uint256"
        },
        {
          "indexed": false,
          "internalType": "uint256",
          "name": "withdrawnAmount",
          "type": "uint256"
        },
        {
          "indexed": false,
          "internalType": "uint256",
          "name": "currentlyLockedAmount",
          "type": "uint256"
        }
      ],
      "name": "LockedFeesWithdrawn",
      "type": "event"
    },
    {
      "anonymous": false,
      "inputs": [
        {
          "indexed": true,
          "internalType": "uint256",
          "name": "campaignId",
          "type": "uint256"
        },
        {
          "indexed": false,
          "internalType": "enum ArcanePact.VoteType",
          "name": "voteType",
          "type": "uint8"
        },
        {
          "indexed": false,
          "internalType": "address",
          "name": "player",
          "type": "address"
        }
      ],
      "name": "NewVoteAdded",
      "type": "event"
    },
    {
      "anonymous": false,
      "inputs": [
        {
          "indexed": true,
          "internalType": "uint256",
          "name": "campaignId",
          "type": "uint256"
        },
        {
          "indexed": true,
          "internalType": "address",
          "name": "player",
          "type": "address"
        },
        {
          "indexed": false,
          "internalType": "uint256",
          "name": "collateral",
          "type": "uint256"
        }
      ],
      "name": "PlayerLockedCollateral",
      "type": "event"
    },
    {
      "anonymous": false,
      "inputs": [
        {
          "indexed": true,
          "internalType": "uint256",
          "name": "campaignId",
          "type": "uint256"
        },
        {
          "indexed": true,
          "internalType": "address",
          "name": "recipient",
          "type": "address"
        },
        {
          "indexed": true,
          "internalType": "address",
          "name": "sender",
          "type": "address"
        },
        {
          "components": [
            {
              "internalType": "enum ArcanePact.ReviewScore",
              "name": "score",
              "type": "uint8"
            },
            {
              "internalType": "string",
              "name": "comment",
              "type": "string"
            }
          ],
          "indexed": false,
          "internalType": "struct ArcanePact.Review",
          "name": "review",
          "type": "tuple"
        }
      ],
      "name": "ReviewAdded",
      "type": "event"
    },
    {
      "anonymous": false,
      "inputs": [
        {
          "indexed": true,
          "internalType": "uint256",
          "name": "campaignId",
          "type": "uint256"
        },
        {
          "indexed": true,
          "internalType": "address",
          "name": "player",
          "type": "address"
        },
        {
          "indexed": true,
          "internalType": "enum ArcanePact.PlayerState",
          "name": "playerState",
          "type": "uint8"
        }
      ],
      "name": "UpdatedCampaignPlayer",
      "type": "event"
    },
    {
      "anonymous": false,
      "inputs": [
        {
          "indexed": true,
          "internalType": "uint256",
          "name": "campaignId",
          "type": "uint256"
        },
        {
          "indexed": false,
          "internalType": "enum ArcanePact.CampaignState",
          "name": "campaignState",
          "type": "uint8"
        }
      ],
      "name": "UpdatedCampaignState",
      "type": "event"
    },
    {
      "anonymous": false,
      "inputs": [
        {
          "indexed": true,
          "internalType": "uint256",
          "name": "campaignId",
          "type": "uint256"
        },
        {
          "indexed": false,
          "internalType": "uint256",
          "name": "totalLockedFees",
          "type": "uint256"
        }
      ],
      "name": "UpdatedLockedFees",
      "type": "event"
    },
    {
      "stateMutability": "payable",
      "type": "fallback"
    },
    {
      "inputs": [
        {
          "internalType": "string",
          "name": "name",
          "type": "string"
        }
      ],
      "name": "ChangePlayerName",
      "outputs": [],
      "stateMutability": "nonpayable",
      "type": "function"
    },
    {
      "inputs": [
        {
          "internalType": "uint256",
          "name": "campaignId",
          "type": "uint256"
        },
        {
          "internalType": "address",
          "name": "recipient",
          "type": "address"
        },
        {
          "components": [
            {
              "internalType": "enum ArcanePact.ReviewScore",
              "name": "score",
              "type": "uint8"
            },
            {
              "internalType": "string",
              "name": "comment",
              "type": "string"
            }
          ],
          "internalType": "struct ArcanePact.Review",
          "name": "review",
          "type": "tuple"
        }
      ],
      "name": "addReview",
      "outputs": [],
      "stateMutability": "nonpayable",
      "type": "function"
    },
    {
      "inputs": [
        {
          "internalType": "uint256",
          "name": "campaignId",
          "type": "uint256"
        },
        {
          "internalType": "enum ArcanePact.VoteType",
          "name": "voteType",
          "type": "uint8"
        }
      ],
      "name": "addVote",
      "outputs": [],
      "stateMutability": "nonpayable",
      "type": "function"
    },
    {
      "inputs": [
        {
          "internalType": "uint256",
          "name": "campaignId",
          "type": "uint256"
        }
      ],
      "name": "campaignApplication",
      "outputs": [],
      "stateMutability": "nonpayable",
      "type": "function"
    },
    {
      "inputs": [
        {
          "internalType": "uint256",
          "name": "campaignId",
          "type": "uint256"
        },
        {
          "internalType": "address[]",
          "name": "addresses",
          "type": "address[]"
        }
      ],
      "name": "invitePlayers",
      "outputs": [],
      "stateMutability": "nonpayable",
      "type": "function"
    },
    {
      "inputs": [
        {
          "components": [
            {
              "internalType": "string",
              "name": "title",
              "type": "string"
            },
            {
              "internalType": "string",
              "name": "description",
              "type": "string"
            },
            {
              "internalType": "bool",
              "name": "inviteOnly",
              "type": "bool"
            },
            {
              "internalType": "uint256",
              "name": "gamemasterFee",
              "type": "uint256"
            },
            {
              "internalType": "uint256",
              "name": "collateral",
              "type": "uint256"
            }
          ],
          "internalType": "struct ArcanePact.NewCampaignConfig",
          "name": "config",
          "type": "tuple"
        }
      ],
      "name": "newCampaign",
      "outputs": [],
      "stateMutability": "nonpayable",
      "type": "function"
    },
    {
      "inputs": [
        {
          "internalType": "uint256",
          "name": "campaignId",
          "type": "uint256"
        },
        {
          "internalType": "address",
          "name": "applicant",
          "type": "address"
        },
        {
          "internalType": "enum ArcanePact.ApplicationDecision",
          "name": "decision",
          "type": "uint8"
        }
      ],
      "name": "reviewApplication",
      "outputs": [],
      "stateMutability": "nonpayable",
      "type": "function"
    },
    {
      "inputs": [
        {
          "internalType": "uint256",
          "name": "campaignId",
          "type": "uint256"
        }
      ],
      "name": "signCampaign",
      "outputs": [],
      "stateMutability": "payable",
      "type": "function"
    },
    {
      "inputs": [
        {
          "internalType": "uint256",
          "name": "campaignId",
          "type": "uint256"
        }
      ],
      "name": "withdrawCollateral",
      "outputs": [],
      "stateMutability": "nonpayable",
      "type": "function"
    },
    {
      "inputs": [
        {
          "internalType": "uint256",
          "name": "campaignId",
          "type": "uint256"
        }
      ],
      "name": "withdrawFees",
      "outputs": [],
      "stateMutability": "nonpayable",
      "type": "function"
    },
    {
      "stateMutability": "payable",
      "type": "receive"
    }
  ],
  "bytecode": "0x6080604052348015600e575f5ffd5b5060015f5561176a806100205f395ff3fe608060405260043610610094575f3560e01c80639c6a4a77116100585780639c6a4a7714610168578063bb826dc014610187578063c02455fd146101a6578063cf5b0cf4146101b9578063e3439109146101d8576100b2565b80630c9cc527146100cb5780631cd3b3bf146100ec5780635e318e071461010b5780636112fe2e1461012a578063724997e114610149576100b2565b366100b25760405163f92b856960e01b815260040160405180910390fd5b60405163201f3fd360e11b815260040160405180910390fd5b3480156100d6575f5ffd5b506100ea6100e53660046111e7565b6101f7565b005b3480156100f7575f5ffd5b506100ea6101063660046112a9565b61023b565b348015610116575f5ffd5b506100ea6101253660046112d7565b610550565b348015610135575f5ffd5b506100ea6101443660046112d7565b610640565b348015610154575f5ffd5b506100ea610163366004611309565b610752565b348015610173575f5ffd5b506100ea6101823660046112d7565b6108ef565b348015610192575f5ffd5b506100ea6101a1366004611362565b6109a6565b6100ea6101b43660046112d7565b610a9a565b3480156101c4575f5ffd5b506100ea6101d33660046113dc565b610c5d565b3480156101e3575f5ffd5b506100ea6101f236600461140e565b610d4e565b336001600160a01b03167fd1f82c6848cf050f244594288c84f7ad0cbfe07e3da56ca594babaa838daf7cc82604051610230919061144c565b60405180910390a250565b5f828152600260205260409020805461025d906001600160a01b031684610e49565b805461027390600160a01b900460ff1684610e77565b80546001600160a01b031633146102b2575f838152600360209081526040808320338085529252909120805490916102b09160ff16908690610eac565b505b5f838152600560205260408120908360018111156102d2576102d2611481565b60018111156102e3576102e3611481565b815260208082019290925260409081015f90812033825290925290205460ff1615610330578233836040516360db150b60e01b8152600401610327939291906114a5565b60405180910390fd5b5f838152600460205260408120600191848381111561035157610351611481565b600181111561036257610362611481565b81526020019081526020015f205f82825461037d91906114e6565b90915550505f83815260056020526040812060019184838111156103a3576103a3611481565b60018111156103b4576103b4611481565b815260208082019290925260409081015f908120338083529352819020805460ff191693151593909317909255905184917fcf452a9f0f05bb3105f5c5dc67aa62aeafbc73300f178b6f230ab8b4a4f989c4916104129186916114ff565b60405180910390a26002816004015461042b9190611524565b5f8481526004602052604081209084600181111561044b5761044b611481565b600181111561045c5761045c611481565b81526020019081526020015f2054111561054b575f82600181111561048357610483611481565b036104dc57805460ff60a01b1916600160a01b90811780835560405185927f5cb848e6a8f9eff9734180d616affe6a6772e1d5aafbaff371b9c62a25a07141926104d39291900460ff1690611543565b60405180910390a25b60018260018111156104f0576104f0611481565b0361054b57805460ff60a01b1916600160a11b1780825560405184917f5cb848e6a8f9eff9734180d616affe6a6772e1d5aafbaff371b9c62a25a071419161054291600160a01b900460ff1690611543565b60405180910390a25b505050565b5f8181526002602052604090208054610572906001600160a01b031683610e49565b8054610587906001600160a01b031633610ef0565b805461059d90600160a01b900460ff1683610f2d565b6105ab816003015483610f62565b60015460ff16156105d8576040516311f726fd60e31b815260048101839052336024820152604401610327565b6001805460ff1916811790556003810180545f9091556105f88133610f85565b6001805460ff19169055600382015460405184917ff6996a9eea60b9a8dd652a4a4ee4de49106867c952f00708a1b3754632dbe1529161054291858252602082015260400190565b5f8181526002602052604090208054610662906001600160a01b031683610e49565b805461067890600160a01b900460ff1683610f2d565b5f828152600360209081526040808320338085529252909120805490916106a49160ff16908590610eac565b6106b381600101548433611007565b60015460ff16156106e0576040516311f726fd60e31b815260048101849052336024820152604401610327565b6001805460ff191681178155810180545f9091556106fe8133610f85565b6001805460ff1916815582015460405185917fab9d5c4d6af84f126c6c71379dbc8c183f0ce5b14ebe8ac63714453758ee4cd99161074491858252602082015260400190565b60405180910390a250505050565b336001600160a01b0383160361077b576040516385ea03d760e01b815260040160405180910390fd5b5f838152600260205260409020805461079d906001600160a01b031685610e49565b80546107b390600160a01b900460ff1685610f2d565b80546001600160a01b031633146107f2575f848152600360209081526040808320338085529252909120805490916107f09160ff16908790610eac565b505b80546001600160a01b03848116911614610839575f8481526003602090815260408083206001600160a01b0387168452909152902080546108379060ff168633610eac565b505b5f848152600660209081526040808320338085529083528184206001600160a01b0388168552909252909120546108799160ff9091169086908690611039565b5f848152600660209081526040808320338085529083528184206001600160a01b038816808652935292819020805460ff191660011790555186907f688588d332fce1279477dc91df9bcc5c220b498e5324e91434f28a38d252c3c8906108e19087906115ce565b60405180910390a450505050565b5f8181526002602052604090208054339190610914906001600160a01b031684610e49565b805461092a90600160a81b900460ff1684611078565b805461094090600160a01b900460ff168461109a565b5f8381526003602090815260408083206001600160a01b0386168452909152902080546109719060ff1685856110ce565b805460ff1916600190811782556040516001600160a01b0385169086905f5160206117155f395f51905f52905f90a450505050565b5f83815260026020526040902080546109c8906001600160a01b031685610e49565b80546109dd906001600160a01b031633610ef0565b80546109f390600160a01b900460ff168561109a565b5f5b82811015610a93575f848483818110610a1057610a10611618565b9050602002016020810190610a25919061162c565b5f8781526003602090815260408083206001600160a01b03851684529091529020805491925090610a5a9060ff1688846110ce565b805460ff1916600390811782556040516001600160a01b0384169089905f5160206117155f395f51905f52905f90a450506001016109f5565b5050505050565b5f8181526002602052604090208054610abc906001600160a01b031683610e49565b8054610ad290600160a01b900460ff168361109a565b5f82815260036020908152604080832033808552925290912080549091610afe9160ff16908590611111565b60018201546002830154610b13818334611155565b8360020154846003015f828254610b2a91906114e6565b925050819055508360010154836001015f828254610b4891906114e6565b9091555050825460ff19166004908117845584018054600191905f90610b6f9084906114e6565b9091555050825460ff166004811115610b8a57610b8a611481565b604051339087905f5160206117155f395f51905f52905f90a4847f268c2c2efdf68cf9400fa52c4864f3d3370b19f7d74d85639a9d4c547db7d9c58560040154604051610bd991815260200190565b60405180910390a2604051828152339086907f0d69312f040d54468a20c0ee4877586a22bb3e16bd689d1fa93aa75bff949a7b9060200160405180910390a3847f82973ae3cca2df4a59c17705bb9c7a89786c60a75ad7e97ae57b0d373655988d8560030154604051610c4e91815260200190565b60405180910390a25050505050565b5f8381526002602052604090208054610c7f906001600160a01b031685610e49565b8054610c94906001600160a01b031633610ef0565b8054610caa90600160a01b900460ff168561109a565b5f8481526003602090815260408083206001600160a01b038716845290915290208054610cdb9060ff16868661118f565b5f836001811115610cee57610cee611481565b03610d0357805460ff19166003178155610d0f565b805460ff191660021781555b805460ff166004811115610d2557610d25611481565b6040516001600160a01b0386169087905f5160206117155f395f51905f52905f90a45050505050565b5f80548180610d5c83611645565b909155505f818152600260205260409081902080546001600160a81b0319163360ff60a01b1916178155919250610d99906060850190850161166c565b8154901515600160a81b0260ff60a81b1990911617808255608084013560018084019190915560608501356002808501919091555f60038501556004840191909155600160a01b90910460ff1690811115610df657610df6611481565b336001600160a01b0316837f3026581ff26909458d3a1807371308fc6cc1f40d645b517a3ee389f4eca7f7988460040154856003015488604051610e3c93929190611685565b60405180910390a4505050565b6001600160a01b038216610e735760405163f49d9d7560e01b815260048101829052602401610327565b5050565b6002826002811115610e8b57610e8b611481565b03610e735760405163221daa7360e01b815260048101829052602401610327565b6004836004811115610ec057610ec0611481565b1461054b57604051630c2ea6ef60e31b8152600481018390526001600160a01b0382166024820152604401610327565b806001600160a01b0316826001600160a01b031614610e735760405163245aecd360e01b81526001600160a01b0382166004820152602401610327565b6002826002811115610f4157610f41611481565b14610e73576040516375ed72c760e11b815260048101829052602401610327565b5f8211610e73576040516307c5ff4360e41b815260048101829052602401610327565b5f816001600160a01b0316836040515f6040518083038185875af1925050503d805f8114610fce576040519150601f19603f3d011682016040523d82523d5f602084013e610fd3565b606091505b505090508061054b5760405163f68179b160e01b8152600481018490526001600160a01b0383166024820152604401610327565b5f831161054b57604051630985097160e11b8152600481018390526001600160a01b0382166024820152604401610327565b8315611072576040516314e8253560e11b8152600481018490526001600160a01b03808416602483015282166044820152606401610327565b50505050565b8115610e735760405163013b040960e51b815260048101829052602401610327565b5f8260028111156110ad576110ad611481565b14610e735760405163221daa7360e01b815260048101829052602401610327565b5f8360048111156110e1576110e1611481565b1461054b5760405163d2abc08d60e01b8152600481018390526001600160a01b0382166024820152604401610327565b600383600481111561112557611125611481565b1461054b57604051630fd0454d60e21b8152600481018390526001600160a01b0382166024820152604401610327565b61115f82846114e6565b811461054b57604051633117beb960e11b8152600481018490526024810183905260448101829052606401610327565b60018360048111156111a3576111a3611481565b1461054b576040516305f16b2160e51b8152600481018390526001600160a01b0382166024820152604401610327565b634e487b7160e01b5f52604160045260245ffd5b5f602082840312156111f7575f5ffd5b813567ffffffffffffffff81111561120d575f5ffd5b8201601f8101841361121d575f5ffd5b803567ffffffffffffffff811115611237576112376111d3565b604051601f8201601f19908116603f0116810167ffffffffffffffff81118282101715611266576112666111d3565b60405281815282820160200186101561127d575f5ffd5b816020840160208301375f91810160200191909152949350505050565b600281106112a6575f5ffd5b50565b5f5f604083850312156112ba575f5ffd5b8235915060208301356112cc8161129a565b809150509250929050565b5f602082840312156112e7575f5ffd5b5035919050565b80356001600160a01b0381168114611304575f5ffd5b919050565b5f5f5f6060848603121561131b575f5ffd5b8335925061132b602085016112ee565b9150604084013567ffffffffffffffff811115611346575f5ffd5b840160408187031215611357575f5ffd5b809150509250925092565b5f5f5f60408486031215611374575f5ffd5b83359250602084013567ffffffffffffffff811115611391575f5ffd5b8401601f810186136113a1575f5ffd5b803567ffffffffffffffff8111156113b7575f5ffd5b8660208260051b84010111156113cb575f5ffd5b939660209190910195509293505050565b5f5f5f606084860312156113ee575f5ffd5b833592506113fe602085016112ee565b915060408401356113578161129a565b5f6020828403121561141e575f5ffd5b813567ffffffffffffffff811115611434575f5ffd5b820160a08185031215611445575f5ffd5b9392505050565b602081525f82518060208401528060208501604085015e5f604082850101526040601f19601f83011684010191505092915050565b634e487b7160e01b5f52602160045260245ffd5b600281106112a6576112a6611481565b8381526001600160a01b0383166020820152606081016114c483611495565b826040830152949350505050565b634e487b7160e01b5f52601160045260245ffd5b808201808211156114f9576114f96114d2565b92915050565b6040810161150c84611495565b9281526001600160a01b039190911660209091015290565b5f8261153e57634e487b7160e01b5f52601260045260245ffd5b500490565b602081016003831061155757611557611481565b91905290565b5f5f8335601e19843603018112611572575f5ffd5b830160208101925035905067ffffffffffffffff811115611591575f5ffd5b80360382131561159f575f5ffd5b9250929050565b81835281816020850137505f828201602090810191909152601f909101601f19169091010190565b602081525f82356115de8161129a565b6115e781611495565b806020840152506115fb602084018461155d565b60408085015261160f6060850182846115a6565b95945050505050565b634e487b7160e01b5f52603260045260245ffd5b5f6020828403121561163c575f5ffd5b611445826112ee565b5f60018201611656576116566114d2565b5060010190565b80358015158114611304575f5ffd5b5f6020828403121561167c575f5ffd5b6114458261165d565b838152826020820152606060408201525f6116a0838461155d565b60a060608501526116b6610100850182846115a6565b9150506116c6602085018561155d565b848303605f190160808601526116dd8382846115a6565b925050506116ed6040850161165d565b151560a0840152606084013560c084015260809093013560e090920191909152509291505056fe9229bc176416b3efdba6c30b2588f1a1b97de8db980ca349e7e0060fc7c70e06a264697066735822122002d00b2c125925e563ea200749636b58e8e4a9262465d45b6c92791aaca4d6ec64736f6c634300081c0033",
  "linkReferences": {},
  "deployedLinkReferences": {},
  "immutableReferences": {},
  "inputSourceName": "project/contracts/ArcanePact.sol",
  "buildInfoId": "solc-0_8_28-175012d8330de05966127ac2647675fb235c8697"
}