{
  "_format": "hh3-artifact-1",
  "contractName": "ArcanePact",
  "sourceName": "contracts/ArcanePact.sol",
  "abi": [
    {
      "inputs": [],
      "stateMutability": "nonpayable",
      "type": "constructor"
    },
    {
      "inputs": [
        {
          "internalType": "uint256",
          "name": "campaignId",
          "type": "uint256"
        },
        {
          "internalType": "address",
          "name": "receiver",
          "type": "address"
        },
        {
          "internalType": "address",
          "name": "caller",
          "type": "address"
        }
      ],
      "name": "AlreadyReviewed",
      "type": "error"
    },
    {
      "inputs": [
        {
          "internalType": "uint256",
          "name": "campaignId",
          "type": "uint256"
        },
        {
          "internalType": "address",
          "name": "applicant",
          "type": "address"
        }
      ],
      "name": "ApplicantAlreadyApproved",
      "type": "error"
    },
    {
      "inputs": [
        {
          "internalType": "uint256",
          "name": "campaignId",
          "type": "uint256"
        },
        {
          "internalType": "address",
          "name": "applicant",
          "type": "address"
        }
      ],
      "name": "ApplicantAlreadyRejected",
      "type": "error"
    },
    {
      "inputs": [
        {
          "internalType": "uint256",
          "name": "campaignId",
          "type": "uint256"
        },
        {
          "internalType": "address",
          "name": "applicant",
          "type": "address"
        }
      ],
      "name": "ApplicantDoesNotExist",
      "type": "error"
    },
    {
      "inputs": [
        {
          "internalType": "uint256",
          "name": "campaignId",
          "type": "uint256"
        },
        {
          "internalType": "address",
          "name": "caller",
          "type": "address"
        }
      ],
      "name": "BlockedDueToReEntrancy",
      "type": "error"
    },
    {
      "inputs": [
        {
          "internalType": "uint256",
          "name": "campaignId",
          "type": "uint256"
        }
      ],
      "name": "CampaignDoesNotExist",
      "type": "error"
    },
    {
      "inputs": [
        {
          "internalType": "uint256",
          "name": "campaignId",
          "type": "uint256"
        }
      ],
      "name": "CampaignIsInviteOnly",
      "type": "error"
    },
    {
      "inputs": [
        {
          "internalType": "uint256",
          "name": "campaignId",
          "type": "uint256"
        }
      ],
      "name": "CampaignLocked",
      "type": "error"
    },
    {
      "inputs": [
        {
          "internalType": "uint256",
          "name": "campaignId",
          "type": "uint256"
        }
      ],
      "name": "CampaignNotCompleted",
      "type": "error"
    },
    {
      "inputs": [],
      "name": "CannotReviewSelf",
      "type": "error"
    },
    {
      "inputs": [],
      "name": "FunctionNotFound",
      "type": "error"
    },
    {
      "inputs": [
        {
          "internalType": "uint256",
          "name": "campaignId",
          "type": "uint256"
        },
        {
          "internalType": "address",
          "name": "player",
          "type": "address"
        },
        {
          "internalType": "enum ArcanePact.VoteType",
          "name": "voteType",
          "type": "uint8"
        }
      ],
      "name": "HasAlreadyVoted",
      "type": "error"
    },
    {
      "inputs": [
        {
          "internalType": "uint256",
          "name": "campaignId",
          "type": "uint256"
        },
        {
          "internalType": "address",
          "name": "player",
          "type": "address"
        }
      ],
      "name": "HasNoLockedCollateral",
      "type": "error"
    },
    {
      "inputs": [
        {
          "internalType": "uint256",
          "name": "campaignId",
          "type": "uint256"
        }
      ],
      "name": "HasNoLockedFees",
      "type": "error"
    },
    {
      "inputs": [
        {
          "internalType": "uint256",
          "name": "gamemasterFee",
          "type": "uint256"
        },
        {
          "internalType": "uint256",
          "name": "collateral",
          "type": "uint256"
        },
        {
          "internalType": "uint256",
          "name": "received",
          "type": "uint256"
        }
      ],
      "name": "IncorrectTransactionValue",
      "type": "error"
    },
    {
      "inputs": [
        {
          "internalType": "address",
          "name": "caller",
          "type": "address"
        }
      ],
      "name": "NotOwner",
      "type": "error"
    },
    {
      "inputs": [],
      "name": "PaymentDataMissing",
      "type": "error"
    },
    {
      "inputs": [
        {
          "internalType": "uint256",
          "name": "campaignId",
          "type": "uint256"
        },
        {
          "internalType": "address",
          "name": "player",
          "type": "address"
        }
      ],
      "name": "PlayerExistsInCampaign",
      "type": "error"
    },
    {
      "inputs": [
        {
          "internalType": "uint256",
          "name": "campaignId",
          "type": "uint256"
        },
        {
          "internalType": "address",
          "name": "player",
          "type": "address"
        }
      ],
      "name": "PlayerHasNotSigned",
      "type": "error"
    },
    {
      "inputs": [
        {
          "internalType": "uint256",
          "name": "campaignId",
          "type": "uint256"
        },
        {
          "internalType": "address",
          "name": "player",
          "type": "address"
        }
      ],
      "name": "PlayerNotAwaitingSignature",
      "type": "error"
    },
    {
      "inputs": [
        {
          "internalType": "uint256",
          "name": "amount",
          "type": "uint256"
        },
        {
          "internalType": "address",
          "name": "recipient",
          "type": "address"
        }
      ],
      "name": "TransferFailed",
      "type": "error"
    },
    {
      "anonymous": false,
      "inputs": [
        {
          "indexed": true,
          "internalType": "uint256",
          "name": "campaignId",
          "type": "uint256"
        },
        {
          "indexed": true,
          "internalType": "address",
          "name": "owner",
          "type": "address"
        },
        {
          "indexed": true,
          "internalType": "enum ArcanePact.CampaignState",
          "name": "campaignState",
          "type": "uint8"
        },
        {
          "indexed": false,
          "internalType": "uint256",
          "name": "participantCount",
          "type": "uint256"
        },
        {
          "components": [
            {
              "internalType": "string",
              "name": "title",
              "type": "string"
            },
            {
              "internalType": "string",
              "name": "description",
              "type": "string"
            },
            {
              "internalType": "bool",
              "name": "inviteOnly",
              "type": "bool"
            },
            {
              "internalType": "uint256",
              "name": "gamemasterFee",
              "type": "uint256"
            },
            {
              "internalType": "uint256",
              "name": "collateral",
              "type": "uint256"
            }
          ],
          "indexed": false,
          "internalType": "struct ArcanePact.NewCampaignConfig",
          "name": "config",
          "type": "tuple"
        }
      ],
      "name": "CampaignCreated",
      "type": "event"
    },
    {
      "anonymous": false,
      "inputs": [
        {
          "indexed": true,
          "internalType": "uint256",
          "name": "campaignId",
          "type": "uint256"
        },
        {
          "indexed": false,
          "internalType": "uint256",
          "name": "participantCount",
          "type": "uint256"
        }
      ],
      "name": "CampaignParticipantCountChanged",
      "type": "event"
    },
    {
      "anonymous": false,
      "inputs": [
        {
          "indexed": true,
          "internalType": "uint256",
          "name": "campaignId",
          "type": "uint256"
        },
        {
          "indexed": false,
          "internalType": "uint256",
          "name": "withdrawnAmount",
          "type": "uint256"
        },
        {
          "indexed": false,
          "internalType": "uint256",
          "name": "currentlyLockedAmount",
          "type": "uint256"
        }
      ],
      "name": "LockedCollateralWithdrawn",
      "type": "event"
    },
    {
      "anonymous": false,
      "inputs": [
        {
          "indexed": true,
          "internalType": "uint256",
          "name": "campaignId",
          "type": "uint256"
        },
        {
          "indexed": false,
          "internalType": "uint256",
          "name": "withdrawnAmount",
          "type": "uint256"
        },
        {
          "indexed": false,
          "internalType": "uint256",
          "name": "currentlyLockedAmount",
          "type": "uint256"
        }
      ],
      "name": "LockedFeesWithdrawn",
      "type": "event"
    },
    {
      "anonymous": false,
      "inputs": [
        {
          "indexed": true,
          "internalType": "uint256",
          "name": "campaignId",
          "type": "uint256"
        },
        {
          "indexed": false,
          "internalType": "enum ArcanePact.VoteType",
          "name": "voteType",
          "type": "uint8"
        },
        {
          "indexed": false,
          "internalType": "address",
          "name": "player",
          "type": "address"
        }
      ],
      "name": "NewVoteAdded",
      "type": "event"
    },
    {
      "anonymous": false,
      "inputs": [
        {
          "indexed": true,
          "internalType": "uint256",
          "name": "campaignId",
          "type": "uint256"
        },
        {
          "indexed": true,
          "internalType": "address",
          "name": "player",
          "type": "address"
        },
        {
          "indexed": false,
          "internalType": "uint256",
          "name": "collateral",
          "type": "uint256"
        }
      ],
      "name": "PlayerLockedCollateral",
      "type": "event"
    },
    {
      "anonymous": false,
      "inputs": [
        {
          "indexed": true,
          "internalType": "uint256",
          "name": "campaignId",
          "type": "uint256"
        },
        {
          "indexed": true,
          "internalType": "address",
          "name": "recipient",
          "type": "address"
        },
        {
          "indexed": true,
          "internalType": "address",
          "name": "sender",
          "type": "address"
        },
        {
          "components": [
            {
              "internalType": "enum ArcanePact.ReviewScore",
              "name": "score",
              "type": "uint8"
            },
            {
              "internalType": "string",
              "name": "comment",
              "type": "string"
            }
          ],
          "indexed": false,
          "internalType": "struct ArcanePact.Review",
          "name": "review",
          "type": "tuple"
        }
      ],
      "name": "ReviewAdded",
      "type": "event"
    },
    {
      "anonymous": false,
      "inputs": [
        {
          "indexed": true,
          "internalType": "uint256",
          "name": "campaignId",
          "type": "uint256"
        },
        {
          "indexed": true,
          "internalType": "address",
          "name": "player",
          "type": "address"
        },
        {
          "indexed": true,
          "internalType": "enum ArcanePact.PlayerState",
          "name": "playerState",
          "type": "uint8"
        }
      ],
      "name": "UpdatedCampaignPlayer",
      "type": "event"
    },
    {
      "anonymous": false,
      "inputs": [
        {
          "indexed": true,
          "internalType": "uint256",
          "name": "campaignId",
          "type": "uint256"
        },
        {
          "indexed": false,
          "internalType": "enum ArcanePact.CampaignState",
          "name": "campaignState",
          "type": "uint8"
        }
      ],
      "name": "UpdatedCampaignState",
      "type": "event"
    },
    {
      "anonymous": false,
      "inputs": [
        {
          "indexed": true,
          "internalType": "uint256",
          "name": "campaignId",
          "type": "uint256"
        },
        {
          "indexed": false,
          "internalType": "uint256",
          "name": "totalLockedFees",
          "type": "uint256"
        }
      ],
      "name": "UpdatedLockedFees",
      "type": "event"
    },
    {
      "stateMutability": "payable",
      "type": "fallback"
    },
    {
      "inputs": [
        {
          "internalType": "uint256",
          "name": "campaignId",
          "type": "uint256"
        },
        {
          "internalType": "address",
          "name": "recipient",
          "type": "address"
        },
        {
          "components": [
            {
              "internalType": "enum ArcanePact.ReviewScore",
              "name": "score",
              "type": "uint8"
            },
            {
              "internalType": "string",
              "name": "comment",
              "type": "string"
            }
          ],
          "internalType": "struct ArcanePact.Review",
          "name": "review",
          "type": "tuple"
        }
      ],
      "name": "addReview",
      "outputs": [],
      "stateMutability": "nonpayable",
      "type": "function"
    },
    {
      "inputs": [
        {
          "internalType": "uint256",
          "name": "campaignId",
          "type": "uint256"
        },
        {
          "internalType": "enum ArcanePact.VoteType",
          "name": "voteType",
          "type": "uint8"
        }
      ],
      "name": "addVote",
      "outputs": [],
      "stateMutability": "nonpayable",
      "type": "function"
    },
    {
      "inputs": [
        {
          "internalType": "uint256",
          "name": "campaignId",
          "type": "uint256"
        }
      ],
      "name": "campaignApplication",
      "outputs": [],
      "stateMutability": "nonpayable",
      "type": "function"
    },
    {
      "inputs": [
        {
          "internalType": "uint256",
          "name": "campaignId",
          "type": "uint256"
        },
        {
          "internalType": "address[]",
          "name": "addresses",
          "type": "address[]"
        }
      ],
      "name": "invitePlayers",
      "outputs": [],
      "stateMutability": "nonpayable",
      "type": "function"
    },
    {
      "inputs": [
        {
          "components": [
            {
              "internalType": "string",
              "name": "title",
              "type": "string"
            },
            {
              "internalType": "string",
              "name": "description",
              "type": "string"
            },
            {
              "internalType": "bool",
              "name": "inviteOnly",
              "type": "bool"
            },
            {
              "internalType": "uint256",
              "name": "gamemasterFee",
              "type": "uint256"
            },
            {
              "internalType": "uint256",
              "name": "collateral",
              "type": "uint256"
            }
          ],
          "internalType": "struct ArcanePact.NewCampaignConfig",
          "name": "config",
          "type": "tuple"
        }
      ],
      "name": "newCampaign",
      "outputs": [],
      "stateMutability": "nonpayable",
      "type": "function"
    },
    {
      "inputs": [
        {
          "internalType": "uint256",
          "name": "campaignId",
          "type": "uint256"
        },
        {
          "components": [
            {
              "internalType": "address",
              "name": "applicant",
              "type": "address"
            },
            {
              "internalType": "enum ArcanePact.ApplicationDecision",
              "name": "decision",
              "type": "uint8"
            }
          ],
          "internalType": "struct ArcanePact.ApplicationReview[]",
          "name": "reviews",
          "type": "tuple[]"
        }
      ],
      "name": "reviewApplications",
      "outputs": [],
      "stateMutability": "nonpayable",
      "type": "function"
    },
    {
      "inputs": [
        {
          "internalType": "uint256",
          "name": "campaignId",
          "type": "uint256"
        }
      ],
      "name": "signCampaign",
      "outputs": [],
      "stateMutability": "payable",
      "type": "function"
    },
    {
      "inputs": [
        {
          "internalType": "uint256",
          "name": "campaignId",
          "type": "uint256"
        }
      ],
      "name": "withdrawCollateral",
      "outputs": [],
      "stateMutability": "nonpayable",
      "type": "function"
    },
    {
      "inputs": [
        {
          "internalType": "uint256",
          "name": "campaignId",
          "type": "uint256"
        }
      ],
      "name": "withdrawFees",
      "outputs": [],
      "stateMutability": "nonpayable",
      "type": "function"
    },
    {
      "stateMutability": "payable",
      "type": "receive"
    }
  ],
  "bytecode": "0x6080604052348015600e575f5ffd5b5060015f55611731806100205f395ff3fe608060405260043610610089575f3560e01c8063831dcd8511610058578063831dcd851461013e5780639c6a4a771461015d578063bb826dc01461017c578063c02455fd1461019b578063e3439109146101ae576100a7565b80631cd3b3bf146100c05780635e318e07146100e15780636112fe2e14610100578063724997e11461011f576100a7565b366100a75760405163f92b856960e01b815260040160405180910390fd5b60405163201f3fd360e11b815260040160405180910390fd5b3480156100cb575f5ffd5b506100df6100da366004611258565b6101cd565b005b3480156100ec575f5ffd5b506100df6100fb366004611286565b6104e2565b34801561010b575f5ffd5b506100df61011a366004611286565b6105d2565b34801561012a575f5ffd5b506100df6101393660046112b8565b6106e4565b348015610149575f5ffd5b506100df610158366004611311565b610881565b348015610168575f5ffd5b506100df610177366004611286565b610a11565b348015610187575f5ffd5b506100df61019636600461138b565b610ac8565b6100df6101a9366004611286565b610bb5565b3480156101b9575f5ffd5b506100df6101c83660046113f4565b610d78565b5f82815260026020526040902080546101ef906001600160a01b031684610e6d565b805461020590600160a01b900460ff1684610e9b565b80546001600160a01b03163314610244575f838152600360209081526040808320338085529252909120805490916102429160ff16908690610ecf565b505b5f8381526005602052604081209083600181111561026457610264611432565b600181111561027557610275611432565b815260208082019290925260409081015f90812033825290925290205460ff16156102c2578233836040516360db150b60e01b81526004016102b993929190611456565b60405180910390fd5b5f83815260046020526040812060019184838111156102e3576102e3611432565b60018111156102f4576102f4611432565b81526020019081526020015f205f82825461030f9190611497565b90915550505f838152600560205260408120600191848381111561033557610335611432565b600181111561034657610346611432565b815260208082019290925260409081015f908120338083529352819020805460ff191693151593909317909255905184917fcf452a9f0f05bb3105f5c5dc67aa62aeafbc73300f178b6f230ab8b4a4f989c4916103a49186916114b0565b60405180910390a2600281600401546103bd91906114d5565b5f848152600460205260408120908460018111156103dd576103dd611432565b60018111156103ee576103ee611432565b81526020019081526020015f205411156104dd575f82600181111561041557610415611432565b0361046e57805460ff60a01b1916600160a01b90811780835560405185927f5cb848e6a8f9eff9734180d616affe6a6772e1d5aafbaff371b9c62a25a07141926104659291900460ff16906114f4565b60405180910390a25b600182600181111561048257610482611432565b036104dd57805460ff60a01b1916600160a11b1780825560405184917f5cb848e6a8f9eff9734180d616affe6a6772e1d5aafbaff371b9c62a25a07141916104d491600160a01b900460ff16906114f4565b60405180910390a25b505050565b5f8181526002602052604090208054610504906001600160a01b031683610e6d565b8054610519906001600160a01b031633610f13565b805461052f90600160a01b900460ff1683610f50565b61053d816003015483610f85565b60015460ff161561056a576040516311f726fd60e31b8152600481018390523360248201526044016102b9565b6001805460ff1916811790556003810180545f90915561058a8133610fa8565b6001805460ff19169055600382015460405184917ff6996a9eea60b9a8dd652a4a4ee4de49106867c952f00708a1b3754632dbe152916104d491858252602082015260400190565b5f81815260026020526040902080546105f4906001600160a01b031683610e6d565b805461060a90600160a01b900460ff1683610f50565b5f828152600360209081526040808320338085529252909120805490916106369160ff16908590610ecf565b6106458160010154843361102a565b60015460ff1615610672576040516311f726fd60e31b8152600481018490523360248201526044016102b9565b6001805460ff191681178155810180545f9091556106908133610fa8565b6001805460ff1916815582015460405185917fab9d5c4d6af84f126c6c71379dbc8c183f0ce5b14ebe8ac63714453758ee4cd9916106d691858252602082015260400190565b60405180910390a250505050565b336001600160a01b0383160361070d576040516385ea03d760e01b815260040160405180910390fd5b5f838152600260205260409020805461072f906001600160a01b031685610e6d565b805461074590600160a01b900460ff1685610f50565b80546001600160a01b03163314610784575f848152600360209081526040808320338085529252909120805490916107829160ff16908790610ecf565b505b80546001600160a01b038481169116146107cb575f8481526003602090815260408083206001600160a01b0387168452909152902080546107c99060ff168633610ecf565b505b5f848152600660209081526040808320338085529083528184206001600160a01b03881685529092529091205461080b9160ff909116908690869061105c565b5f848152600660209081526040808320338085529083528184206001600160a01b038816808652935292819020805460ff191660011790555186907f688588d332fce1279477dc91df9bcc5c220b498e5324e91434f28a38d252c3c89061087390879061157f565b60405180910390a450505050565b5f83815260026020526040902080546108a3906001600160a01b031685610e6d565b80546108b8906001600160a01b031633610f13565b80546108ce90600160a01b900460ff1685610e9b565b5f5b82811015610a0a575f8484838181106108eb576108eb6115c9565b905060400201602001602081019061090391906115dd565b90505f858584818110610918576109186115c9565b61092e92602060409092020190810191506115f8565b5f8881526003602090815260408083206001600160a01b038516845290915290208054919250906109639060ff16898461109b565b5f83600181111561097657610976611432565b036109bf57805461098b9060ff1689846110de565b805460ff1916600390811782556040516001600160a01b038416908a905f5160206116dc5f395f51905f52905f90a46109ff565b80546109cf9060ff168984611122565b805460ff1916600290811782556040516001600160a01b038416908a905f5160206116dc5f395f51905f52905f90a45b5050506001016108d0565b5050505050565b5f8181526002602052604090208054339190610a36906001600160a01b031684610e6d565b8054610a4c90600160a81b900460ff1684611166565b8054610a6290600160a01b900460ff1684610e9b565b5f8381526003602090815260408083206001600160a01b038616845290915290208054610a939060ff168585611188565b805460ff1916600190811782556040516001600160a01b0385169086905f5160206116dc5f395f51905f52905f90a450505050565b5f8381526002602052604090208054610aea906001600160a01b031685610e6d565b8054610aff906001600160a01b031633610f13565b8054610b1590600160a01b900460ff1685610e9b565b5f5b82811015610a0a575f848483818110610b3257610b326115c9565b9050602002016020810190610b4791906115f8565b5f8781526003602090815260408083206001600160a01b03851684529091529020805491925090610b7c9060ff168884611188565b805460ff1916600390811782556040516001600160a01b0384169089905f5160206116dc5f395f51905f52905f90a45050600101610b17565b5f8181526002602052604090208054610bd7906001600160a01b031683610e6d565b8054610bed90600160a01b900460ff1683610e9b565b5f82815260036020908152604080832033808552925290912080549091610c199160ff169085906111cb565b60018201546002830154610c2e81833461120f565b8360020154846003015f828254610c459190611497565b925050819055508360010154836001015f828254610c639190611497565b9091555050825460ff19166004908117845584018054600191905f90610c8a908490611497565b9091555050825460ff166004811115610ca557610ca5611432565b604051339087905f5160206116dc5f395f51905f52905f90a4847f268c2c2efdf68cf9400fa52c4864f3d3370b19f7d74d85639a9d4c547db7d9c58560040154604051610cf491815260200190565b60405180910390a2604051828152339086907f0d69312f040d54468a20c0ee4877586a22bb3e16bd689d1fa93aa75bff949a7b9060200160405180910390a3847f82973ae3cca2df4a59c17705bb9c7a89786c60a75ad7e97ae57b0d373655988d8560030154604051610d6991815260200190565b60405180910390a25050505050565b5f80548180610d8683611611565b909155505f818152600260205260409081902080546001600160a81b0319163360ff60a01b1916178155919250610dc39060608501908501611638565b8154901515600160a81b0260ff60a81b1990911617808255608084013560018084019190915560608501356002808501919091555f60038501556004840191909155600160a01b90910460ff1690811115610e2057610e20611432565b336001600160a01b0316837ff4f90e4575db1218345a307cd4383beaaab2d9771a7dd46c1156afafb21cbed9846004015487604051610e60929190611651565b60405180910390a4505050565b6001600160a01b038216610e975760405163f49d9d7560e01b8152600481018290526024016102b9565b5050565b5f826002811115610eae57610eae611432565b14610e975760405163221daa7360e01b8152600481018290526024016102b9565b6004836004811115610ee357610ee3611432565b146104dd57604051630c2ea6ef60e31b8152600481018390526001600160a01b03821660248201526044016102b9565b806001600160a01b0316826001600160a01b031614610e975760405163245aecd360e01b81526001600160a01b03821660048201526024016102b9565b6002826002811115610f6457610f64611432565b14610e97576040516375ed72c760e11b8152600481018290526024016102b9565b5f8211610e97576040516307c5ff4360e41b8152600481018290526024016102b9565b5f816001600160a01b0316836040515f6040518083038185875af1925050503d805f8114610ff1576040519150601f19603f3d011682016040523d82523d5f602084013e610ff6565b606091505b50509050806104dd5760405163f68179b160e01b8152600481018490526001600160a01b03831660248201526044016102b9565b5f83116104dd57604051630985097160e11b8152600481018390526001600160a01b03821660248201526044016102b9565b8315611095576040516314e8253560e11b8152600481018490526001600160a01b038084166024830152821660448201526064016102b9565b50505050565b5f8360048111156110ae576110ae611432565b036104dd576040516305f16b2160e51b8152600481018390526001600160a01b03821660248201526044016102b9565b60038360048111156110f2576110f2611432565b036104dd57604051634e9f3e4360e01b8152600481018390526001600160a01b03821660248201526044016102b9565b600283600481111561113657611136611432565b036104dd5760405163067ab35960e11b8152600481018390526001600160a01b03821660248201526044016102b9565b8115610e975760405163013b040960e51b8152600481018290526024016102b9565b5f83600481111561119b5761119b611432565b146104dd5760405163d2abc08d60e01b8152600481018390526001600160a01b03821660248201526044016102b9565b60038360048111156111df576111df611432565b146104dd57604051630fd0454d60e21b8152600481018390526001600160a01b03821660248201526044016102b9565b6112198284611497565b81146104dd57604051633117beb960e11b81526004810184905260248101839052604481018290526064016102b9565b60028110611255575f5ffd5b50565b5f5f60408385031215611269575f5ffd5b82359150602083013561127b81611249565b809150509250929050565b5f60208284031215611296575f5ffd5b5035919050565b80356001600160a01b03811681146112b3575f5ffd5b919050565b5f5f5f606084860312156112ca575f5ffd5b833592506112da6020850161129d565b9150604084013567ffffffffffffffff8111156112f5575f5ffd5b840160408187031215611306575f5ffd5b809150509250925092565b5f5f5f60408486031215611323575f5ffd5b83359250602084013567ffffffffffffffff811115611340575f5ffd5b8401601f81018613611350575f5ffd5b803567ffffffffffffffff811115611366575f5ffd5b8660208260061b840101111561137a575f5ffd5b939660209190910195509293505050565b5f5f5f6040848603121561139d575f5ffd5b83359250602084013567ffffffffffffffff8111156113ba575f5ffd5b8401601f810186136113ca575f5ffd5b803567ffffffffffffffff8111156113e0575f5ffd5b8660208260051b840101111561137a575f5ffd5b5f60208284031215611404575f5ffd5b813567ffffffffffffffff81111561141a575f5ffd5b820160a0818503121561142b575f5ffd5b9392505050565b634e487b7160e01b5f52602160045260245ffd5b6002811061125557611255611432565b8381526001600160a01b03831660208201526060810161147583611446565b826040830152949350505050565b634e487b7160e01b5f52601160045260245ffd5b808201808211156114aa576114aa611483565b92915050565b604081016114bd84611446565b9281526001600160a01b039190911660209091015290565b5f826114ef57634e487b7160e01b5f52601260045260245ffd5b500490565b602081016003831061150857611508611432565b91905290565b5f5f8335601e19843603018112611523575f5ffd5b830160208101925035905067ffffffffffffffff811115611542575f5ffd5b803603821315611550575f5ffd5b9250929050565b81835281816020850137505f828201602090810191909152601f909101601f19169091010190565b602081525f823561158f81611249565b61159881611446565b806020840152506115ac602084018461150e565b6040808501526115c0606085018284611557565b95945050505050565b634e487b7160e01b5f52603260045260245ffd5b5f602082840312156115ed575f5ffd5b813561142b81611249565b5f60208284031215611608575f5ffd5b61142b8261129d565b5f6001820161162257611622611483565b5060010190565b803580151581146112b3575f5ffd5b5f60208284031215611648575f5ffd5b61142b82611629565b828152604060208201525f611666838461150e565b60a0604085015261167b60e085018284611557565b91505061168b602085018561150e565b848303603f190160608601526116a2838284611557565b925050506116b260408501611629565b1515608084810191909152606085013560a0850152939093013560c0909201919091525091905056fe9229bc176416b3efdba6c30b2588f1a1b97de8db980ca349e7e0060fc7c70e06a26469706673582212208e8284af567648306d24c3827874fc2f227c253240c14a778f199e0308510b7a64736f6c634300081c0033",
  "linkReferences": {},
  "deployedLinkReferences": {},
  "immutableReferences": {},
  "inputSourceName": "project/contracts/ArcanePact.sol",
  "buildInfoId": "solc-0_8_28-fb39442fe9dfaa9cb7fabac2c3a4b77b8e445768"
}